:040000008A110D282C
:10000800FE00030E83120313AA000A08AB008A1528
:10001800672F8A110F288A15C1258A11D2008A15DF
:10002800C2258A11D3008A15C3258A11D4008A15DE
:10003800C4258A11D500CE01CF01D001D101830199
:100048008A1126280F30831603139F048A11F92773
:100058008A118A15A8278A118A15C5258A11831637
:1000680003130512831203130516CB01CC015208A2
:10007800B10054088A11CD258A1100308312031368
:10008800BF000030BE002530BD008030BC008A159E
:100098002F278A11831603138C160B178B178A11B7
:1000A80000238A1183120313CA004A0803195D2822
:1000B8005E285328E92A3230AD000030AE008A1598
:1000C8003B268A118312031354035504031D6D281C
:1000D8006E2882283230AD000030AE008A153B26EB
:1000E8008A11023083120313D4000030D50052085D
:1000F800B10054088A11CD258A1153280130D40043
:100108000030D5005208B10054088A11CD258A1153
:100118005328023054065504031D93289428E928CF
:100128005308803AFF0080307F02031D9D2802306B
:100138005202031CA028A128D328831203135508B0
:10014800B8005408B7005208FF3EB9005308031816
:10015800013EFF3EBA008A15F4258A11FF3083124A
:100168000313D2070318D30AFF30D30783120313EC
:100178005508AF005408AE005308B1005208B0004B
:100188002030B2008A15E1258A1132308312031318
:10019800AD000030AE008A153B268A115328013085
:1001A80083120313D4000030D5001030D200003081
:1001B800D3005508B8005408B7005308BA005208CD
:1001C800B9008A15F4258A11BA285308803AFF0025
:1001D80080307F02031DF22802305202031CF528EA
:1001E800F628F728A128023083120313D400003020
:1001F800D5001030D2000030D300DD28CB01CC016F
:100208004430AD000030AE00AF000430B000003024
:10021800B1008A11E3268A11FA3083120313AD0064
:100228000030AE008A153B268A115328C701443096
:10023800B3008A1186278A11831203133408C90070
:100248003308C8004908803AFF0080307F02031D48
:100258002F2920304802031C32293329052A83120A
:1002680003134908803AFF0080307F02031D3E29AE
:100278007F304802031841294229052AC8308312D1
:100288000313AD000030AE008A153B268A11831295
:1002980003134808013E84008A1100278A11CD0003
:1002A800023054065504031D5A295B29B829103019
:1002B80052065304031D6129622996294D088A159F
:1002C800F8268A11831203135508AF005408AE00AC
:1002D8005308B1005208B0004D08B2008A15E12554
:1002E8008A11013083120313D4000030D500013085
:1002F800D2000030D3005208B10054088A11CD252D
:100308008A1183120313CB01CC014430AD000030B5
:10031800AE00AF000430B0000030B1008A11E3260F
:100328008A1153284D088A15F8268A118312031357
:100338005508AF005408AE005308B1005208B00089
:100348004D08B2008A15E1258A1101308312031382
:10035800D2070318D30A0030D3075208B100540853
:100368008A11CD258A118529103052065304031DA0
:10037800BE29BF29E3294D088A15F8268A11831258
:1003880003135508AF005408AE005308B1005208D3
:10039800B0004D08B2008A15E1258A110230831297
:1003A8000313D4000030D5000130D2000030D30050
:1003B8005208B10054088A11CD258A1185294D08A3
:1003C8008A15F8268A11831203135508AF005408BA
:1003D800AE005308B1005208B0004D08B2008A15AB
:1003E800E1258A11013083120313D2070318D30AB7
:1003F8000030D3075208B10054088A11CD258A115C
:100408008529BC3083120313AD000230AE008A1573
:100418003B268A1185293230AD000030AE008A159E
:100428003B268A1102308312031354065504031D18
:100438001E2A1F2A4E2A5308803AFF0080307F0266
:10044800031D282A02305202031C2B2A2C2A3B2A7D
:10045800FF3083120313D2070318D30AFF30D307E0
:100468005208B10054088A11CD258A115328FF304B
:1004780083120313D4070318D50AFF30D5071030A9
:10048800D2000030D3005208B10054088A11CD259B
:100498008A1153285308803AFF0080307F02031DD9
:1004A800572A02305202031C5A2A5B2AFD2AFF30BF
:1004B80083120313D2070318D30AFF30D307520855
:1004C800B10054088A11CD258A1153283230AD0065
:1004D8000030AE008A153B268A1183120313540399
:1004E8005504031D782A792A9E2A1030520653048F
:1004F800031D7F2A802A912A0130D4070318D50AC0
:100508000030D5070130D2000030D3005208B100C6
:1005180054088A11CD258A1153280130D2070318AF
:10052800D30A0030D3075208B10054088A11CD25E8
:100538008A1153285308803AFF0080307F02031D38
:10054800A72A103052020318AA2AAB2AFD2A013022
:1005580083120313D2070318D30A0030D3075208B3
:10056800B10054088A11CD258A1153284C08803AC5
:10057800FF0080307F02031DC32A03304B02031C97
:10058800C62AC72AD12AF43083120313AD000130DA
:10059800AE008A153B268A11532832308312031382
:1005A800AD000030AE008A153B268A118312031372
:1005B8004B08443E84004A08831380000130CB076F
:1005C8000318CC0A0030CC0753284A08233A0319E9
:1005D8006A2A093A03190F2A6B3A03195F28033A62
:1005E80003198D28013A03190229073A03191A2910
:1005F800BA2A53288A110D28831203138613061763
:10060800861606168619092B0A2B282B0330831207
:100618000313AE009730AD00AD0B102BAE0B102BB3
:10062800000083120313861D1A2B1B2B152B073072
:1006380083120313AE007C30AD00AD0B212BAE0B43
:10064800212B262B3130332D06192B2B2C2B4A2B03
:10065800033083120313AE009730AD00AD0B322B7D
:10066800AE0B322B000083120313061D3C2B3D2BCF
:10067800372B073083120313AE007C30AD00AD0B6F
:10068800432BAE0B432B482B3230332D86184D2B82
:100698004E2B6C2B033083120313AE009730AD0042
:1006A800AD0B542BAE0B542B000083120313861C86
:1006B8005E2B5F2B592B073083120313AE007C305F
:1006C800AD00AD0B652BAE0B652B6A2B3330332D8C
:1006D80006186F2B702B8E2B033083120313AE007A
:1006E8009730AD00AD0B762BAE0B762B0000831246
:1006F8000313061C802B812B7B2B073083120313DB
:10070800AE007C30AD00AD0B872BAE0B872B8C2B4E
:100718004130332D86170613861606168619952B33
:10072800962BB42B033083120313AE009730AD0021
:10073800AD0B9C2BAE0B9C2B000083120313861D64
:10074800A62BA72BA12B073083120313AE007C30F6
:10075800AD00AD0BAD2BAE0BAD2BB22B3430332D22
:100768000619B72BB82BD62B033083120313AE0010
:100778009730AD00AD0BBE2BAE0BBE2B0000831225
:100788000313061DC82BC92BC32B07308312031371
:10079800AE007C30AD00AD0BCF2BAE0BCF2BD42BE6
:1007A8003530332D8618D92BDA2BF82B03308312EA
:1007B8000313AE009730AD00AD0BE02BAE0BE02B72
:1007C800000083120313861CEA2BEB2BE52B073062
:1007D80083120313AE007C30AD00AD0BF12BAE0BD2
:1007E800F12BF62B3630332D0618FB2BFC2B1A2C4D
:1007F800033083120313AE009730AD00AD0B022C0B
:10080800AE0B022C000083120313061C0C2C0D2CBB
:10081800072C073083120313AE007C30AD00AD0BFC
:10082800132CAE0B132C182C4230332D86170617B9
:10083800861206168619212C222C402C033083128E
:100848000313AE009730AD00AD0B282CAE0B282C4F
:10085800000083120313861D322C332C2D2C0730F5
:1008680083120313AE007C30AD00AD0B392CAE0BF8
:10087800392C3E2C3730332D0619432C442C622C4E
:10088800033083120313AE009730AD00AD0B4A2C32
:10089800AE0B4A2C000083120313061D542C552C52
:1008A8004F2C073083120313AE007C30AD00AD0B24
:1008B8005B2CAE0B5B2C602C3830332D8618652CE6
:1008C800662C842C033083120313AE009730AD00DE
:1008D800AD0B6C2CAE0B6C2C000083120313861C22
:1008E800762C772C712C073083120313AE007C30E2
:1008F800AD00AD0B7D2CAE0B7D2C822C3930332D09
:100908000618872C882CA62C033083120313AE00FC
:100918009730AD00AD0B8E2CAE0B8E2C00008312E1
:100928000313061C982C992C932C0730831203135D
:10093800AE007C30AD00AD0B9F2CAE0B9F2CA42CD1
:100948004330332D86170617861606128619AD2CE6
:10095800AE2CCC2C033083120313AE009730AD00BD
:10096800AD0BB42CAE0BB42C000083120313861D00
:10097800BE2CBF2CB92C073083120313AE007C3079
:10098800AD00AD0BC52CAE0BC52CCA2C2A30332DAF
:100998000619CF2CD02CEE2C033083120313AE0093
:1009A8009730AD00AD0BD62CAE0BD62C00008312C1
:1009B8000313061DE02CE12CDB2C073083120313F4
:1009C800AE007C30AD00AD0BE72CAE0BE72CEC2C69
:1009D8003030332D8618F12CF22C102D0330831271
:1009E8000313AE009730AD00AD0BF82CAE0BF82C0E
:1009F800000083120313861C022D032DFD2C0730E3
:100A080083120313AE007C30AD00AD0B092DAE0B85
:100A1800092D0E2D2330332D0618132D142D322DAC
:100A2800033083120313AE009730AD00AD0B1A2DBF
:100A3800AE0B1A2D000083120313061C242D252D3E
:100A48001F2D073083120313AE007C30AD00AD0BB1
:100A58002B2DAE0B2B2D302D4430332D00300800BC
:100A680083120313B701B01F3A2D3B2D482DAD0952
:100A7800AE09AF09B009AD0A0319AE0A0319AF0AE6
:100A88000319B00A0130B700B41F4B2D4C2D592D56
:100A9800B109B209B309B409B10A0319B20A0319B1
:100AA800B30A0319B40A0130B7060030BB0000309E
:100AB800BA000030B9000030B80030082F042E0406
:100AC8002D040319682D692DB42D0130B600772D3A
:100AD8000130B5000310AD0DAE0DAF0DB00DB50B67
:100AE8006E2D0130B607B01F7A2D7B2D6C2D01308D
:100AF800B5000310B80DB90DBA0DBB0DB50B7D2DA2
:100B080030083402031D922D2F083302031D922D45
:100B18002E083202031D922D2D083102031C952D3B
:100B2800962DA52D2D08B1022E08031C2E0FB202FA
:100B38002F08031C2F0FB3023008031C300FB40218
:100B4800381401300310B00CAF0CAE0CAD0CFF3EE6
:100B5800031DA62D0130B602031DB32DB42D7B2D28
:100B680037080319B82DB92DC42DB809B909BA0920
:100B7800BB09B80A0319B90A0319BA0A0319BB0A47
:100B88003B08B0003A08AF003908AE003808AD009D
:100B9800080083120313B3003303031DD42DD52D8E
:100BA800F12D31087F3EB6003608B200043003103C
:100BB800B20CFF3E031DDB2D3208B4003608B50029
:100BC8000F30B50534088A1522268A1183120313BB
:100BD80035088A1522268A11572E02303306031D3E
:100BE800F62DF72D132E3108BF3EB6003608B20099
:100BF80004300310B20CFF3E031DFD2D3208B40073
:100C08003608B5000F30B50534088A1522268A1132
:100C18008312031335088A1522268A11572E0330AA
:100C28003306031D182E192E352E3108933EB600B3
:100C38003608B20004300310B20CFF3E031D1F2E0D
:100C48003208B4003608B5000F30B50534088A15E7
:100C580022268A118312031335088A1522268A113F
:100C6800572E04303306031D3A2E3B2E572E3108DB
:100C7800D33EB6003608B20004300310B20CFF3E73
:100C8800031D412E3208B4003608B5000F30B505F3
:100C980034088A1522268A118312031335088A1507
:100CA80022268A11572E080083120313A600260352
:100CB800031D5F2E602E7C2E24087F3EA900290884
:100CC800A50004300310A50CFF3E031D662E250861
:100CD800A7002908A8000F30A80527088A150926A3
:100CE8008A118312031328088A1509268A11E22E0D
:100CF80002302606031D812E822E9E2E2408BF3E1A
:100D0800A9002908A50004300310A50CFF3E031D07
:100D1800882E2508A7002908A8000F30A80527084D
:100D28008A1509268A118312031328088A150926A9
:100D38008A11E22E03302606031DA32EA42EC02EF0
:100D48002408933EA9002908A50004300310A50C27
:100D5800FF3E031DAA2E2508A7002908A8000F306A
:100D6800A80527088A1509268A118312031328085B
:100D78008A1509268A11E22E04302606031DC52E7F
:100D8800C62EE22E2408D33EA9002908A500043067
:100D98000310A50CFF3E031DCC2E2508A70029082B
:100DA800A8000F30A80527088A1509268A1183127A
:100DB800031328088A1509268A11E22E08008312CF
:100DC80003132D08B200EF2E320884002E08831377
:100DD80080000130B2070130B0020030031CB103BB
:100DE800B102300A031DFC2E310A031DFC2EFD2E14
:040DF800E82E0800D9
:100E000007308A000408840A820700340034013461
:100E10000234033404340534063407340834093406
:100E20000A340B340C340D340E340F3410341134B6
:100E30001234133414341534163417341834193466
:100E40001A341B341C341D341E341F342034213416
:100E500022342334243425342634273428342934C6
:100E60002A342B342C342D342E342F343034313476
:100E70003234333434343534363437343834393426
:100E80003A343B343C343D343E343F3440344134D6
:100E90004234433444344534463447344834493486
:100EA0004A344B344C344D344E344F345034513436
:100EB00052345334543455345634573458345934E6
:100EC0005A345B345C345D345E345F346034613496
:100ED0006234633464346534663467346834693446
:100EE0006A346B346C346D346E346F3470347134F6
:100EF00072347334743475347634773478347934A6
:100F00007A347B347C347D347E347F348312031313
:100F1000B801B901B7018E2F0130B307330884003F
:100F20002030831300060319962F972F8C2F330838
:100F30008400F7300007B50005303502031CA12FEF
:100F4000A22F8C2F330884002D300006031DA92FFB
:100F5000AA2FAF2F0130B7000130B307D82F3308C5
:100F600084002B300006031DB62FB72FD82FAC2FCF
:100F7000330884003908AE003808AD000A30AF00ED
:100F80000030B0008A159A268A11831203132E08A6
:100F9000B600831300082D02B500031CB603350804
:100FA000303EB80036080318013E003EB900AC2FB1
:100FB00033088400D0300007B5000A303502031C26
:100FC000E22FE32FB82F3708031DE72FE82FF42F68
:100FD0003809B5003909B600B50A0319B60A35084B
:100FE000B3003608B400F82F3908B4003808B3004D
:100FF00008008316031386150615861406140800C8
:101B8200013400340134003400308A1522268A15CB
:101B92000F308A1522268A15080000308A1522265F
:101BA2008A1501308A1522268A150800831203132A
:101BB200AD000C1EDD2DDE2DDA2D2D08990008005A
:101BC200831203132E088A15D7258A15831203134D
:101BD20030088A15D7258A158312031332088A150D
:101BE200D7258A150800831203133908B100370874
:101BF2008A11CD258A1520308A15F8268A15831276
:101C020003133908B10037088A11CD258A15080057
:101C120083120313A300071023088A155A268A1574
:101C2200831203130715063083120313A200303008
:101C3200A100A10B1A2EA20B1A2E83120313071155
:101C4200080083120313B000071030088A157A26A1
:101C52008A15831203130715063083120313AF008C
:101C62003030AE00AE0B332EAF0B332E8312031384
:101C720007110800831203130512482EC73083127E
:101C82000313AF00442EAF0B432E472E000001304A
:101C920083120313AD020030031CAE03AE022D0A01
:101CA200031D572E2E0A031D572E582E3F2E0516A2
:101CB200080083120313A000201C602E612E632EE5
:101CC2000616642E0612A01C672E682E6A2E861631
:101CD2006B2E8612201D6E2E6F2E712E0617722EFF
:101CE2000613A01D752E762E782E8617792E861352
:101CF200080083120313AD002D1C802E812E832E2B
:101D02000616842E0612AD1C872E882E8A2E861663
:101D12008B2E86122D1D8E2E8F2E912E0617922E11
:101D22000613AD1D952E962E982E8617992E861384
:101D3200080083120313B101B2012D1CA12EA22EA1
:101D4200A82E2F08B1070318B20A3008B2070130D3
:101D52000310AF0DB00DFF3E031DA92E013003107D
:101D6200AE0CAD0CFF3E031DB02E2D082E04031D3C
:101D7200BB2EBC2E9E2E3208AE003108AD000800EC
:101D820083120313A4002408A2000F30A205240822
:101D9200A300F030A30507142308A10004300310A8
:101DA200A10CFF3E031DD02E21088A155A268A1542
:101DB2008312031307150C3083120313A100A10B26
:101DC200E02EE32E83120313071122088A155A26E6
:101DD2008A158312031307150C3083120313A10013
:101DE200A10BF12EF42E83120313071108008312A4
:101DF2000313B1003108AF000F30AF053108B00056
:101E0200F030B00507143008AE0004300310AE0CF9
:101E1200FF3E031D072F2E088A157A268A15831284
:101E2200031307150C3083120313AE00AE0B172FEA
:101E32001A2F8312031307112F088A157A268A157F
:101E42008312031307150C3083120313AE00AE0B7B
:101E5200282F2B2F83120313071108008316031355
:101E620007138717831203133C08C0003D08C10003
:101E72003E08C2003F08C30006300310C00DC10D6A
:101E8200C20DC30DFF3E031D3E2F4308B0004208A2
:101E9200AF004108AE004008AD000030B4003D3054
:101EA200B3000930B2000030B1008A1134258A151E
:101EB200831203132D08FF3E83160313990098160D
:101EC2001812831203139817181608008C1E6A2F13
:101ED2006B2F9F2F1A08AC004E08031D712F722F13
:101EE200772F2C08D1000130CE009F2F4E03031D07
:101EF2007B2F7C2F812F2C08D0000230CE009F2F09
:101F020002304E06031D862F872F9F2F2C08CF00ED
:101F1200CE015008A40051088A1158268A1583124E
:101F220003134F088A15C1268A1583120313520818
:101F3200A40054088A1158268A159F2F831203136E
:101F42002B088A002A0E8300FE0E7E0E09008316DD
:101F520003130710071106128612061386130030A8
:101F62008A157A268A151A3083120313B200F830C2
:101F7200B100B10BBA2FB20BBA2F03308A15222649
:101F82008A15073083120313B2007C30B100B10B03
:101F9200C82FB20BC82FCD2F03308A1522268A15DF
:101FA2000F3083120313B2004730B100B10BD72FA9
:101FB200B20BD72F000003308A1522268A15023071
:101FC2008A1522268A1502308A1522268A15083099
:101FD2008A1522268A1500308A1522268A150C3087
:101FE2008A1522268A1500308A1522268A1506307D
:0E1FF2008A1522268A158A15CE258A15080022
:02400E00723FFF
:00000001FF
