:040000008A110D282C
:10000800FE00030E83120313AA000A08AB008A1528
:10001800DD2D8A110F288313E430FD000D30FE001A
:100028009930FF00A03084008A150D238A115930B9
:10003800FD000B30FE004330FF00413084008A157C
:100048000D238A11D901DA01DB01DC01DD01DE01B2
:10005800DF01E001E10183018A11322883160313CD
:100068000710831203130710831603130712831252
:10007800031307168A15EC228A118A15D2228A11CF
:100088008A151A248A1183120313810101308316F9
:10009800031381008B168B178A15CB228A118A11BC
:1000A800E5258A118312031361088A112D258A1107
:1000B800831203136108031D62286328FC2800309B
:1000C8008A1545248A11831203132E08BB002D08B4
:1000D800BA008A15D1238A1183160313EE00013062
:1000E8008A1545248A11831203132E08BB002D0894
:1000F800BA008A15D1238A1183160313EF00023040
:100108008A1545248A11831203132E08BB002D0873
:10011800BA008A15D1238A1183160313F0006F08D9
:1001280083120313B5008316031370088312031395
:10013800B600831603136E088A1584278A11831262
:100148000313B101B10A01308A1190268A1148308F
:1001580083120313B2000030B3008A156F268A1188
:10016800D63083120313B0008A1577248A118316B8
:100178000313F100EC01710A0319C328C428CC2821
:100188006E0871020318C928CA28CC280130EC006F
:100198006C0C83120313031C07100318071483162F
:1001A80003136F0883120313BF003F078A15242621
:1001B8008A11E03083120313B0008A1577248A115C
:1001C80083160313F2000130ED00720A0319ED28BB
:1001D800EE28F528700872020318F328F428F52889
:1001E800ED016D0C83120313031C07120318071685
:1001F80002306106031D01290229E4290108590773
:10020800BF005A0803185A0AC0003F088316031390
:10021800F30083120313400883160313F4000A3013
:1002280083120313BA000030BB001030B30027302C
:10023800B40083160313740883120313B6008316DD
:100248000313730883120313B5008A1555258A1101
:10025800831203133408BD003308BC008A151B251C
:100268008A11831203133A08303E83160313B5002C
:100278000A3083120313BA000030BB00E830B30021
:100288000330B40083160313740883120313B600F3
:1002980083160313730883120313B5008A155525B3
:1002A8008A11831203133408BD003308BC008A1571
:1002B8001B258A11831203133A08303E8316031351
:1002C800B6000A3083120313BA000030BB00643052
:1002D800B3000030B40083160313740883120313A9
:1002E800B60083160313730883120313B5008A1527
:1002F80055258A11831203133408BD003308BC0046
:100308008A151B258A11831203133A08303E831677
:100318000313B7000A3083120313BA000030BB007E
:100328000A30B3000030B400831603137408831234
:100338000313B60083160313730883120313B5005F
:100348008A1555258A11831203133408BD00330812
:10035800BC008A151B258A11831203133A08303E04
:1003680083160313B8000A3083120313BA0000304F
:10037800BB0083160313740883120313BD0083168E
:100388000313730883120313BC008A151B258A11F3
:10039800831203133A08303E83160313B9008312FD
:1003A8000313B101B10A01308A1190268A11B130C4
:1003B80083120313B2000030B3008A156F268A1126
:1003C8008A11F9228A1183120313DF005F08031DC3
:1003D800EE29EF29F0295C2844305F06031DF52932
:1003E800F6290B2A6108013EE1000330E1056108A6
:1003F8008A112D258A119C3083120313C000D63030
:10040800BF00BF0B052AC00B052A0A2A5C28033047
:100418006106031D102A112AEC2A5C2860080319BA
:10042800162A172A212A6008FF3E83160313E600BE
:10043800FF3003180030E7002A2A4508FF3E8316DC
:100448000313E600FF3003180030E7006608831244
:100458000313E0008A15FA228A115C284508FF3E3A
:10046800BF00FF3003180030C00060083F0640049A
:1004780003193F2A402A4A2A6008013E83160313BB
:10048800E800003003180130E9004E2A83160313F0
:10049800E801E901680883120313E0002E2A6008C6
:1004A800460784008A150A208A114707BF003F08BB
:1004B80084002D3083138000B101B10A02308A1103
:1004C80090268A11831203134708B2000030B30044
:1004D8008A156F268A112E2A30305F02031C752A6E
:1004E800762A5C283A305F0203187B2A7C2A5C282B
:1004F8006008460784008A150A208A114707BF004A
:100508003F0884005F0883138000B101B10A0230FC
:100518008A1190268A11831203134708B20000300B
:10052800B3008A156F268A11831203134508FF3E0C
:10053800BF00FF3003180030C00060083F064004C9
:100548000319A72AA82AB22A6008013E83160313B2
:10055800EA00003003180130EB00B62A83160313B3
:10056800EA01EB016A0883120313E0008A15FA22F4
:100578008A110230831203136106031DC42AC52A97
:100588005C280A30AD008316031322088A152E232F
:100598008A11831603132307F03EE4000A308312FE
:1005A8000313AD008316031327088A152E238A1117
:1005B800831603132807F03EE5006508831203132A
:1005C800B3008316031364088A15BE268A115C28B3
:1005D8005F08233A0319322A093A0319122A683A9A
:1005E8000319532A702A8A110D288312031306123D
:1005F8008616061786178619022B032B212B033024
:1006080083120313AE009730AD00AD0B092BAE0B70
:10061800092B000083120313861D132B142B0E2B9A
:10062800073083120313AE007C30AD00AD0B1A2BDC
:10063800AE0B1A2B1F2B31302C2D0619242B252BF2
:10064800432B033083120313AE009730AD00AD0B7C
:100658002B2BAE0B2B2B000083120313061D352BFF
:10066800362B302B073083120313AE007C30AD00DD
:10067800AD0B3C2BAE0B3C2B412B32302C2D86186E
:10068800462B472B652B033083120313AE0097309C
:10069800AD00AD0B4D2BAE0B4D2B00008312031399
:1006A800861C572B582B522B073083120313AE008E
:1006B8007C30AD00AD0B5E2BAE0B5E2B632B333065
:1006C8002C2D0618682B692B872B033083120313F4
:1006D800AE009730AD00AD0B6F2BAE0B6F2B00004B
:1006E80083120313061C792B7A2B742B0730831281
:1006F8000313AE007C30AD00AD0B802BAE0B802B0E
:10070800852B41302C2D061686120617861786195A
:100718008E2B8F2BAD2B033083120313AE00973033
:10072800AD00AD0B952BAE0B952B00008312031378
:10073800861D9F2BA02B9A2B073083120313AE0024
:100748007C30AD00AD0BA62BAE0BA62BAB2B3430FB
:100758002C2D0619B02BB12BCF2B0330831203138A
:10076800AE009730AD00AD0BB72BAE0BB72B00002A
:1007780083120313061DC12BC22BBC2B0730831217
:100788000313AE007C30AD00AD0BC82BAE0BC82BED
:10079800CD2B35302C2D8618D22BD32BF12B0330B3
:1007A80083120313AE009730AD00AD0BD92BAE0BFF
:1007B800D92B000083120313861CE32BE42BDE2BBA
:1007C800073083120313AE007C30AD00AD0BEA2B6B
:1007D800AE0BEA2BEF2B36302C2D0618F42BF52B0D
:1007E800132C033083120313AE009730AD00AD0B0A
:1007F800FB2BAE0BFB2B000083120313061C052CEE
:10080800062C002C073083120313AE007C30AD0099
:10081800AD0B0C2CAE0B0C2C112C42302C2D0616CB
:1008280086160613861786191A2C1B2C392C0330AA
:1008380083120313AE009730AD00AD0B212CAE0B25
:10084800212C000083120313861D2B2C2C2C262C04
:10085800073083120313AE007C30AD00AD0B322C91
:10086800AE0B322C372C37302C2D06193C2C3D2C56
:100878005B2C033083120313AE009730AD00AD0B31
:10088800432CAE0B432C000083120313061D4D2C82
:100898004E2C482C073083120313AE007C30AD0079
:1008A800AD0B542CAE0B542C592C38302C2D8618EB
:1008B8005E2C5F2C7D2C033083120313AE0097301F
:1008C800AD00AD0B652CAE0B652C00008312031335
:1008D800861C6F2C702C6A2C073083120313AE0011
:1008E8007C30AD00AD0B762CAE0B762C7B2C3930E2
:1008F8002C2D0618802C812C9F2C03308312031377
:10090800AE009730AD00AD0B872CAE0B872C0000E6
:1009180083120313061C912C922C8C2C0730831203
:100928000313AE007C30AD00AD0B982CAE0B982CA9
:100938009D2C43302C2D061686160617861386190D
:10094800A62CA72CC52C033083120313AE009730B6
:10095800AD00AD0BAD2CAE0BAD2C00008312031314
:10096800861DB72CB82CB22C073083120313AE00A7
:100978007C30AD00AD0BBE2CAE0BBE2CC32C2A3088
:100988002C2D0619C82CC92CE72C0330831203130D
:10099800AE009730AD00AD0BCF2CAE0BCF2C0000C6
:1009A80083120313061DD92CDA2CD42C073083129A
:1009B8000313AE007C30AD00AD0BE02CAE0BE02C89
:1009C800E52C30302C2D8618EA2CEB2C092D033021
:1009D80083120313AE009730AD00AD0BF12CAE0BB4
:1009E800F12C000083120313861CFB2CFC2CF62C24
:1009F800073083120313AE007C30AD00AD0B022D1F
:100A0800AE0B022D072D23302C2D06180C2D0D2D85
:100A18002B2D033083120313AE009730AD00AD0BBE
:100A2800132DAE0B132D000083120313061C1D2D6E
:100A38001E2D182D073083120313AE007C30AD0035
:100A4800AD0B242DAE0B242D292D44302C2D003038
:100A5800080083120313B9008A151A238A11D42DAA
:100A6800B101B10A01308A1190268A1148308312E7
:100A78000313B2000030B3008A156F268A1183125F
:100A88000313B101B10A02308A1190268A11D330BA
:100A980083120313B2000030B3008A156F268A113F
:100AA800D33083120313C7000530C6000430C500D5
:100AB800E0018A15DA228A118A15FA228A11E42DB0
:100AC800B101B10A01308A1190268A1109308312C6
:100AD8000313B2008030B3008A156F268A1183127F
:100AE8000313B101B10A02308A1190268A11C2306B
:100AF80083120313B2000030B3008A156F268A11DF
:100B0800C23083120313C700582DB101B10A013056
:100B18008A1190268A11B13083120313B200003073
:100B2800B3008A156F268A1183120313B101B10A23
:100B380002308A1190268A11A03083120313B20062
:100B48000030B3008A156F268A11A0308312031370
:100B5800C7000130C6005A2DB101B10A01308A110F
:100B680090268A11093083120313B2008030B30033
:100B78008A156F268A1183120313B101B10A023054
:100B88008A1190268A111A3083120313B20080301A
:100B9800B3008A156F268A118A15E3228A11E42D7B
:100BA800831203133908003A0319342D013A031943
:100BB800642D033A0319892D013A0319B02DE42D48
:100BC800080083160313871187120612861206136C
:100BD8008613831203138711871200308A15B123F5
:100BE8008A11413083120313B200EE30B100B10B09
:100BF800FB2DB20BFB2D03308A15B1238A1183120A
:100C08000313871600008312031387120730831219
:100C18000313B2007C30B100B10B102EB20B102EB2
:100C2800152E03308A15B1238A11831203138716F0
:100C38000000831203138712C73083120313B10015
:100C4800252EB10B242E282E000003308A15B1233F
:100C58008A11831203138716000083120313871265
:100C6800C73083120313B100392EB10B382E3C2E36
:100C7800000002308A15B1238A11831203138716E4
:100C88000000831203138712C73083120313B100C5
:100C98004D2EB10B4C2E502E000002308A157623B3
:100CA8008A1108308A1576238A1100308A1576232E
:100CB8008A1108308A1576238A1100308A1576231E
:100CC8008A1101308A1576238A110330831203139F
:100CD800B2009730B100B10B6F2EB20B6F2E00002F
:100CE80000308A1576238A1106308A1576238A11F0
:100CF80000308A1576238A110C308A1576238A11DA
:100D0800033083120313B2009730B100B10B8A2E5F
:100D1800B20B8A2E0000080083120313B3003303BA
:100D2800031D972E982EB42E31087F3EB600360844
:100D3800B20004300310B20CFF3E031D9E2E320891
:100D4800B4003608B5000F30B50534088A15762387
:100D58008A118312031335088A1576238A111A2FEC
:100D680002303306031DB92EBA2ED62E3108BF3EE7
:100D7800B6003608B20004300310B20CFF3E031D63
:100D8800C02E3208B4003608B5000F30B505340857
:100D98008A1576238A118312031335088A15762358
:100DA8008A111A2F03303306031DDB2EDC2EF82E92
:100DB8003108933EB6003608B20004300310B20C76
:100DC800FF3E031DE22E3208B4003608B5000F308E
:100DD800B50534088A1576238A118312031335085A
:100DE8008A1576238A111A2F04303306031DFD2E27
:100DF800FE2E1A2F3108D33EB6003608B200043052
:100E08000310B20CFF3E031D042F3208B40036084D
:100E1800B5000F30B50534088A1576238A11831278
:100E2800031335088A1576238A111A2F08008312AE
:100E38000313A6002603031D222F232F3F2F240868
:100E48007F3EA9002908A50004300310A50CFF3E29
:100E5800031D292F2508A7002908A8000F30A80579
:100E680027088A155B238A118312031328088A1519
:100E78005B238A11A52F02302606031D442F452F18
:100E8800612F2408BF3EA9002908A50004300310DB
:100E9800A50CFF3E031D4B2F2508A7002908A80015
:100EA8000F30A80527088A155B238A1183120313BC
:100EB80028088A155B238A11A52F03302606031DEF
:100EC800662F672F832F2408933EA9002908A500C1
:100ED80004300310A50CFF3E031D6D2F2508A70045
:100EE8002908A8000F30A80527088A155B238A114E
:100EF8008312031328088A155B238A11A52F04304F
:100F08002606031D882F892FA52F2408D33EA90064
:100F18002908A50004300310A50CFF3E031D8F2FE0
:100F28002508A7002908A8000F30A80527088A1552
:100F38005B238A118312031328088A155B238A11FD
:100F4800A52F080083120313B201B01FAC2FAD2FD9
:100F5800B42FAF09B009AF0A0319B00A0130B200C3
:100F6800AE1FB72FB82FBD2FAD09AE09AD0A0319B3
:100F7800AE0A2D082E040319C22FC32FF02F0130FB
:100F8800B100CF2F01300310AD0DAE0DFF3E031D94
:100F9800C72F0130B107AE1FD22FD32FC62F2E086F
:100FA8003002031DD92F2D082F02031CDC2FDD2F43
:100FB800E32F2D08AF022E08031CB003B002013046
:100FC8000310AE0CAD0CFF3E031DE42F0130B1023F
:100FD800031DEF2FF02FD32F32080319F42FF52F0D
:100FE800FA2FAF09B009AF0A0319B00A3008AE00EA
:060FF8002F08AD00080007
:10100000FF1B0A2883137F1883170008840A03191B
:10101000FF0A080008308A000408840A82070034A6
:101020000234033407340834033405340D340F34E8
:1010300053344534473455344E34443441342034E9
:10104000503441344E34543441344C344C344134B3
:10105000003453346534673475346E3464346F341B
:0A1060002034503457344D3400346E
:10159600831603138615061586140614080083168B
:1015A600031387100C30831203139D0008000030CC
:1015B6008A1576238A150F308A1576238A15080030
:1015C60000308A1576238A150C308A1576238A15FB
:1015D60008008316031307110C30831203139700B8
:1015E600073092007C3083160313920008008312A2
:1015F60003136008460784008A150A208A15013EEF
:10160600B10002308A1190268A1508007E088A00E9
:101616007F0882008A1509238A158000840A040837
:101626007D0603190034FF0A0319FE0A0D2B00304C
:101636008A1576238A1501308A1576238A15033092
:1016460083120313B2009730B100B10B282BB20BF3
:10165600282B0000080083120313AF00AE012F1CD5
:10166600352B362B382B2D08AE070310AD0D031086
:10167600AF0C2F08031D402B412B322B2E080800E0
:10168600013400340134003404340534D334413495
:1016960031343A3430342E34303432343A3430340F
:1016A6002E34303433343A3430342E34303400343B
:1016B60083120313A300871123088A1591238A1521
:1016C6008312031387160000831203138712033055
:1016D60083120313A2009730A100A10B702BA20B5B
:1016E600702B0000080083120313B0008711300826
:1016F6008A15B1238A1583120313871600008312F5
:1017060003138712033083120313AF009730AE0022
:10171600AE0B8B2BAF0B8B2B000008008312031331
:10172600A000201C972B982B9A2B06169B2B061293
:10173600A01C9E2B9F2BA12B8616A22B8612201D4A
:10174600A52BA62BA82B0617A92B0613A01DAC2B81
:10175600AD2BAF2B8617B02B86130800831203130D
:10176600AD002D1CB72BB82BBA2B0616BB2B0612B9
:10177600AD1CBE2BBF2BC12B8616C22B86122D1D70
:10178600C52BC62BC82B0617C92B0613AD1DCC2B94
:10179600CD2BCF2B8617D02B86130800FF30831254
:1017A6000313B3000330B4003B08AE003A08AD00A3
:1017B6003230AF000030B0008A15F3238A15831249
:1017C60003132D08FF3EB5002E080318013E013E07
:1017D600B6008A1555258A158312031333080800A7
:1017E60083120313B101B2012D1CFA2BFB2B012C22
:1017F6002F08B1070318B20A3008B20701300310E8
:10180600AF0DB00DFF3E031D022C01300310AE0CD0
:10181600AD0CFF3E031D092C2D082E04031D142CB0
:10182600152CF72B3208AE003108AD0008008316E0
:10183600031305150519202C242C83160313851470
:10184600272C83160313851085182A2C2E2C831615
:1018560003130514312C8316031305108E309F00D5
:10186600831203131F08C5399F001F140330831208
:101876000313AE009730AD00AD0B3F2CAE0B3F2CE3
:101886000000080083120313B0003003031D4C2C24
:101896004D2C522C1F08C53908389F00602C023089
:1018A6003006031D572C582C5D2C1F08C5391038DF
:1018B6009F00602C1F08C5399F0004308312031354
:1018C600AF00AF0B642C0000831203131F151F1902
:1018D6006D2C6E2C6A2C1E08AE00831603131E0890
:1018E60083120313AD00080083120313300884002B
:1018F6002D30831300060319812C822CA32C30086B
:10190600023E84002D30000603198A2C8B2CA32C52
:101916003008023E84000008B1000A30AD003008ED
:10192600840000088A152E238A15831203133107B3
:10193600F03EB200B3013208B4003308B500A72C5C
:10194600FF30B4000030B5003408080083120313DA
:10195600A4002408A2000F30A2052408A100043028
:101966000310A10CFF3E031DB32C2108A3000F306A
:10197600A305871523088A1591238A158312031355
:101986008716000083120313871210308312031385
:10199600A100A10BCC2C8312031322088A159123D4
:1019A6008A15831203138716000083120313871206
:1019B600103083120313A100A10BDF2C0800831241
:1019C6000313B1003108AF000F30AF053108AE0088
:1019D60004300310AE0CFF3E031DEC2C2E08B000A5
:1019E6000F30B005871530088A15B1238A15831282
:1019F6000313871600008312031387121030831215
:101A06000313AE00AE0B052D831203132F088A15A0
:101A1600B1238A158312031387160000831203135A
:101A26008712103083120313AE00AE0B182D080078
:101A3600831203133A083B040319222D232D502D3C
:101A46000130BE002F2D01300310BA0DBB0DFF3E35
:101A5600031D272D0130BE07BB1F322D332D262D2A
:101A66003B083D02031D392D3A083C02031C3C2D60
:101A76003D2D432D3A08BC023B08031CBD03BD02A5
:101A860001300310BB0CBA0CFF3E031D442D013080
:101A9600BE02031D4F2D502D332D3D08BB003C08C3
:101AA600BA00080083120313B801B90133083404DD
:101AB60003195E2D5F2D942D0130B7006B2D01307B
:101AC6000310B30DB40DFF3E031D632D0130B707A0
:101AD600B41F6E2D6F2D622D01300310B80DB90D98
:101AE600FF3E031D702D34083602031D7C2D33087E
:101AF6003502031C7F2D802D872D3308B50234084F
:101B0600031CB603B602381401300310B40CB30C30
:101B1600FF3E031D882D0130B702031D932D942D22
:101B26006F2D3908B4003808B300080046343A343B
:101B3600303431346B3444343A3430343034203435
:101B460020342034203420342034203400344334EC
:101B56004E3454343A343034303430343034303413
:101B660020342034203420342034203420340034EF
:101B760056346F346C34743461346A346534733477
:101B860020344E346F342E34323420342034203412
:101B96000034523431343A342D342E342D342A3430
:101BA6002A342A342A34523433343A342D342E34F7
:101BB6002D3400348C1EE02DE12D0E2E1A08AC00BB
:101BC6005B08031DE72DE82DED2D2C08DE00013006
:101BD600DB000E2E5B03031DF12DF22DF72D2C08D5
:101BE600DD000230DB000E2E2C08DC00DB015D0878
:101BF600A4005E088A111B278A15831203135C084A
:101C06008A15A9248A15831203134108A4004308E0
:101C16008A111B278A150B1D112E122E1B2E003022
:101C260083120313D9070318DA0A0130DA070B11F6
:101C3600831203132B088A002A0E8300FE0E7E0EE3
:101C4600090083120313B6003608B300B401330843
:101C5600AD003408AE000530AF000030B0008A1584
:101C6600F3238A15831203132E08B8002D08B70034
:101C760001303802F53003193702031C432E442E77
:101C8600482EF430B7000130B8003808B4003708E1
:101C9600B3000310B40CB30C0310B40CB30C33082C
:101CA60095003808B4003708B3000310B40CB30C21
:101CB60033080139B500B50E17083506EF39350674
:101CC600970037080139B300B30EB30D1708330672
:101CD600DF3933069700080083120313B701B801F2
:101CE600962E8312031337083207B5003308B40063
:101CF6000318B40AB71F802EB403831203133408E3
:101D0600B6003608FF00350884008A1500208A15BB
:101D16008A15E2248A15013083120313B7070318C4
:101D2600B80A0030B80737083207B5003308B400E0
:101D36000318B40AB71FA02EB40383120313340882
:101D4600B6003608FF00350884008A1500208A157B
:101D5600003A0319AF2EB02EBD2E3808803AFF0088
:101D660080307F02031DB92E10303702031CBC2EB3
:101D7600BD2E742E080083120313B7003708031D07
:101D8600C52EC62EC82E0130B7003F303702031CC1
:101D9600CD2ECE2ED02E3E30B70037083E3C8316D1
:101DA60003139200831203133308B400B5013408F9
:101DB600AD003508AE000530AF000030B0008A1522
:101DC600F3238A15831203132E08B9002D08B800D1
:101DD60001303902F53003193802031CF32EF42EB4
:101DE600F82EF430B8000130B9003908B5003808CB
:101DF600B4000310B50CB40C0310B50CB40C3408C5
:101E06009B003908B5003808B4000310B50CB40CB3
:101E160034080139B600B60E1D083606EF39360607
:101E26009D0038080139B400B40EB40D1D083406FF
:101E3600DF3934069D00080083120313B201AE1F7A
:101E4600252F262F2D2FAD09AE09AD0A0319AE0A8F
:101E56000130B200B01F302F312F382FAF09B00933
:101E6600AF0A0319B00A0130B206B301B4012D0856
:101E76002E0403193F2F402F752F0130B1004C2F30
:101E860001300310AD0DAE0DFF3E031D442F013092
:101E9600B107AE1F4F2F502F432F01300310B30D44
:101EA600B40DFF3E031D512F2E083002031D5D2F7A
:101EB6002D082F02031C602F612F682F2D08AF02FB
:101EC6002E08031CB003B002331401300310AE0C0D
:101ED600AD0CFF3E031D692F0130B102031D742FA7
:101EE600752F502F32080319792F7A2F7F2FB309B8
:101EF600B409B30A0319B40A3408AE003308AD00B6
:101F0600080083120313B9000A30AD000030AE009A
:101F16003908B700B8013708AF003808B0008A158D
:101F26001F278A15831203132D08303ECB002E304F
:101F3600CC000A30AD000030AE003908B700B80159
:101F46003708AF003808B0008A11A6278A15831211
:101F560003132D08303ECD000A30AD000030AE0030
:101F66003508B700B8013708AF003808B0008A1541
:101F76001F278A15831203132D08303ED0002E30FA
:101F8600D1000A30AD000030AE003508B700B80108
:101F96003708AF003808B0008A11A6278A158312C1
:101FA60003132D08303ED2000A30AD000030AE00DB
:101FB6003608B700B8013708AF003808B0008A15F0
:101FC6001F278A15831203132D08303ED5002E30A5
:101FD600D6000A30AD000030AE003608B700B801B2
:101FE6003708AF003808B0008A11A6278A15831271
:0A1FF60003132D08303ED700080049
:02400E00723FFF
:00000001FF
